:020000040800F2
:1000000000500020F10400084103000843030008E9
:1000100045030008470300084903000800000000EA
:100020000000000000000000000000004B0300087A
:100030004D030008000000004F03000851030008B2
:100040003905000839050008390500083905000898
:100050003905000839050008390500083905000888
:100060003905000839050008390500083905000878
:100070003905000839050008390500083905000868
:100080003905000839050008390500083905000858
:100090003905000839050008390500083905000848
:1000A0003905000839050008390500083905000838
:1000B0003905000839050008390500083905000828
:1000C0003905000839050008390500083905000818
:1000D0003905000839050008390500083905000808
:1000E000390500083905000839050008000000003E
:1000F0000000000000000000000000000000000000
:0C01000000000000000000005FF808F1A3
:10010C000348044B834202D0034B03B1184770479A
:10011C001000002010000020000000000548064BD5
:10012C001B1AD90F01EBA301491002D0034B03B1E9
:10013C00184770471000002010000020000000003D
:10014C0010B5064C237843B9FFF7DAFF044B13B113
:10015C000448AFF300800123237010BD1000002071
:10016C0000000000BC17000808B5054B1BB1054981
:10017C000548AFF30080BDE80840FFF7CFBF00BFD4
:10018C000000000014000020BC17000884B0134BC2
:10019C009A6942F010029A619A6902F01002009278
:1001AC00009A9A6942F020029A619A6902F0200240
:1001BC000192019A9A6942F004029A619A6902F0DA
:1001CC0004020292029A9A6942F008029A619B69AF
:1001DC0003F008030393039B04B070470010024024
:1001EC0072B6FEE700B595B0282200210DEB020097
:1001FC0001F0FEF9002305930693079308930993E6
:10020C00019302930393049305230A934FF48033D1
:10021C000B9301220D920E920222119212934FF423
:10022C00E01313930AA800F061FBC8B90F230593E0
:10023C0002210691002307934FF4806208920993E0
:10024C0005A800F085FD68B9012301934FF4807374
:10025C00029301A800F048FE30B915B05DF804FB1C
:10026C00FFF7BEFFFFF7BCFFFFF7BAFF08B500F0C2
:10027C0085F9FFF7B7FFFFF789FF00F003F800F0EF
:10028C00C3F8FEE708B50848084B03604FF0FF338E
:10029C0043604FF48073836000F06CFF00B908BDBD
:1002AC00FFF79EFFFBE700BF2C000020002800405A
:1002BC0002680C4B9A4200D0704700B583B000F036
:1002CC00F9FA094BDA6942F00062DA61DB6903F092
:1002DC0000630193019B054B0122C3F83C2403B03E
:1002EC005DF804FB00280040001002400000424270
:1002FC0082B00E4B9A6942F001029A619A6902F03F
:10030C0001020092009ADA6942F08052DA61DB69EC
:10031C0003F080530193019B054A536823F0E0637B
:10032C0043F08063536002B0704700BF001002407E
:10033C0000000140FEE7FEE7FEE7FEE7FEE7704740
:10034C007047704708B500F02BF908BD70470000E6
:10035C000268094B9A4200D0704782B003F564439F
:10036C009A6942F400629A619B6903F400630193F9
:10037C00019B02B0704700BF002C014010B586B045
:10038C000023029303930493059302681A4B9A4239
:10039C0001D006B010BD03F564439A6942F0040223
:1003AC009A619A6902F004020092009A9A6942F0EA
:1003BC0008029A619B6903F008030193019B4FF4B7
:1003CC00F063029302240394059402A90B4800F0F5
:1003DC0063F9032302930394059402A9084800F0DF
:1003EC005BF9084A536823F0C00343F0E06343F021
:1003FC0040035360CDE700BF002C014000080140D2
:10040C00000C01400000014010B592B00024109483
:10041C00119409940A940B940C940D940E940F94CB
:10042C002022214601A801F0E3F82C482C4B036054
:10043C00446084604FF6FF73C3600461446184615F
:10044C0000F0AEFF002836D100231093119310A9B1
:10045C00224801F06DF8002830D160230993002266
:10046C000A920B920C920D920E920F9209A91B48B4
:10047C0000F0F0FF28BB042209A9184800F0EAFF9D
:10048C0010BB082209A9154800F0E4FFF8B90023B5
:10049C00019302930393049305934FF40052069235
:1004AC00089301A90D4801F079F898B90B48FFF7AA
:1004BC0065FF12B010BDFFF793FEC5E7FFF790FE86
:1004CC00CBE7FFF78DFED6E7FFF78AFED9E7FFF7FC
:1004DC0087FEDCE7FFF784FEE8E700BF4000002062
:1004EC00002C0140FFF732FF0B480C490C4A00234B
:1004FC0002E0D458C4500433C4188C42F9D3094ACE
:10050C00094C002301E013600432A242FBD301F03A
:10051C00BFF8FFF7ABFE7047000000201000002072
:10052C00201800081000002024020020FEE7000024
:10053C0010B504460E4B1A784FF47A73B3FBF2F3F2
:10054C000C4A1068B0FBF3F000F092F868B90F2C6D
:10055C0001D901200AE0002221464FF0FF3000F0C3
:10056C0077F8054B1C60002000E0012010BD00BF97
:10057C0004000020000000200800002008B5074AF5
:10058C00136843F010031360032000F04FF80F20A2
:10059C00FFF7CEFFFFF7ACFE002008BD00200240A5
:1005AC00034A1168034B1B780B441360704700BF60
:1005BC008800002004000020014B1868704700BF21
:1005CC0088000020002808DB0901C9B200F1604056
:1005DC0000F5614080F80013704700F00F0009012E
:1005EC00C9B2014B1954704714ED00E000B500F08E
:1005FC000700C0F1070CBCF1040F28BF4FF0040C2E
:10060C00031D062B0FD9C31E4FF0FF3E0EFA0CF044
:10061C0021EA000199400EFA03FE22EA0E0241EA99
:10062C0002005DF804FB0023EEE70000074AD368E4
:10063C0023F4E0631B041B0C000200F4E060034392
:10064C0043F0BF6343F40033D360704700ED00E028
:10065C0010B50446054BD868C0F30220FFF7C6FF5F
:10066C0001462046FFF7AEFF10BD00BF00ED00E0D5
:10067C000138B0F1807F0BD24FF0E0235861054A6E
:10068C00F02182F823100020986107221A6170472C
:10069C000120704700ED00E070B582B00024A44644
:1006AC00A1E07E4DAB4214D00CD8A5F58015AB4221
:1006BC000FD005F57025AB420BD0A5F58015AB42DC
:1006CC0010D106E0764DAB4203D005F58035AB4238
:1006DC0008D18B68002B50D0012B49D042610824E3
:1006EC0000E0CC68BEF1FF0F49D806464FEA8C02F9
:1006FC0033680F25954023EA050304FA02F21343ED
:10070C0033604B6813F0805F6BD0664B9A6942F094
:10071C0001029A619B6903F001030193019B4FEA6B
:10072C009C02951C604B53F825600CF00305AD0042
:10073C000F23AB4026EA03065C4B984226D003F508
:10074C008063984200F08C8003F58063984200F03F
:10075C00898003F58063984216D0042317E0CC6897
:10076C000434BFE7CC680834BCE7CC680C34B9E778
:10077C0002610824B6E70024B4E70424B2E7061D9E
:10078C00ACF108029200B3E7032300E00023AB4076
:10079C0033430232444D45F822304B6813F4801F2A
:1007AC0062D0434A936843EA0E0393604B6813F498
:1007BC00001F5FD03E4AD36843EA0E03D3604B68F8
:1007CC0013F4003F5CD03A4A536843EA0E0353607B
:1007DC004B6813F4803F59D0354A136843EA0E0333
:1007EC0013600CF1010C0B6833FA0CF254D001229B
:1007FC0002FA0CF203EA020E32EA0303F1D14B685F
:10080C00122B3FF64EAF122B3FF66CAF01A555F8ED
:10081C0023F000BFDF060008EF0600087107000890
:10082C0083070008F1060008F1060008F10600082D
:10083C00F1060008F1060008F1060008F1060008B0
:10084C00F1060008F1060008F1060008F1060008A0
:10085C00F1060008F10600086B070008770700088E
:10086C00012394E7022392E7114A936823EA0E03CB
:10087C0093609BE70E4AD36823EA0E03D3609EE78E
:10088C000B4A536823EA0E035360A1E7084A136826
:10089C0023EA0E031360A4E702B070BD000022101F
:1008AC00000031100010024000000140000801401F
:1008BC0000040140014B01221A62704700000E42F5
:1008CC0082B0084B1B68084AA2FB03235B0A00FB9F
:1008DC0003F3019300BF019B5A1E0192002BF9D127
:1008EC0002B0704700000020D34D6210002800F0C9
:1008FC00F18170B582B00446036813F0010F2CD05F
:10090C00994B5B6803F00C03042B1DD0964B5B6872
:10091C0003F00C03082B12D06368B3F5803F41D071
:10092C00002B55D103F1804303F504331A6822F4EC
:10093C0080321A601A6822F480221A6037E08A4BDF
:10094C005B6813F4803FE7D0874B1B6813F4003FC0
:10095C0003D06368002B00F0BF81236813F0020FF3
:10096C0075D0814B5B6813F00C0F5FD07E4B5B68CE
:10097C0003F00C03082B54D02369002B00F08A8061
:10098C007A4B01221A60FFF717FE0546764B1B685F
:10099C0013F0020F75D1FFF70FFE401B0228F5D99B
:1009AC0003209EE1704A136843F48033136063683C
:1009BC0043B3FFF701FE05466B4B1B6813F4003F76
:1009CC00CBD1FFF7F9FD401B6428F5D9032088E152
:1009DC00B3F5A02F09D0644B1A6822F480321A6048
:1009EC001A6822F480221A60E1E703F18043A3F530
:1009FC003C331A6842F480221A601A6842F480323E
:100A0C001A60D4E7FFF7D8FD0546574B1B6813F463
:100A1C00003FA2D0FFF7D0FD401B6428F5D903207E
:100A2C005FE1514B5B6813F4803FA5D14E4B1B68C3
:100A3C0013F0020F03D02369012B40F04F814A4A77
:100A4C00136823F0F803616943EAC1031360236858
:100A5C0013F0080F33D0A369002B5CD0434B012259
:100A6C00C3F88024FFF7A8FD05463F4B5B6A13F0E3
:100A7C00020F21D1FFF7A0FD401B0228F5D903205E
:100A8C002FE1394A136823F0F803616943EAC10383
:100A9C001360DCE7354B00221A60FFF78DFD05462D
:100AAC00314B1B6813F0020FD1D0FFF785FD401BB3
:100ABC000228F5D9032014E10120FFF701FF236878
:100ACC0013F0040F00F09680274BDB6913F0805F66
:100ADC0034D1254BDA6942F08052DA61DB6903F0DC
:100AEC0080530193019B0125214B1B6813F4807FDC
:100AFC0026D0E368012B3DD0002B53D103F180436A
:100B0C0003F504331A6A22F001021A621A6A22F0FF
:100B1C0004021A6233E0154B0022C3F88024FFF75D
:100B2C004BFD0546104B5B6A13F0020FC7D0FFF765
:100B3C0043FD401B0228F5D90320D2E00025D3E762
:100B4C000B4A136843F480731360FFF735FD0646B8
:100B5C00074B1B6813F4807FCBD1FFF72DFD801B57
:100B6C006428F5D90320BCE000100240000042428A
:100B7C00007000405F4A136A43F001031362E3689C
:100B8C0033B3FFF719FD06465A4B1B6A13F0020FDD
:100B9C002FD1FFF711FD801B41F288339842F3D916
:100BAC0003209EE0052B09D0524B1A6A22F0010259
:100BBC001A621A6A22F004021A62E0E74D4B1A6AB2
:100BCC0042F004021A621A6A42F001021A62D6E773
:100BDC00FFF7F2FC0646474B1B6A13F0020F08D0D6
:100BEC00FFF7EAFC801B41F288339842F3D90320CB
:100BFC0077E0E5B9E369002B72D03E4A526802F007
:100C0C000C02082A56D0022B17D03B4B00221A6636
:100C1C00FFF7D2FC0446374B1B6813F0007F47D01C
:100C2C00FFF7CAFC001B0228F5D9032059E0314A12
:100C3C00D36923F08053D361DCE72F4B00221A6673
:100C4C00FFF7BAFC05462B4B1B6813F0007F06D050
:100C5C00FFF7B2FC401B0228F5D9032041E0236AC0
:100C6C00B3F5803F1AD023494B6823F47413226ADE
:100C7C00606A024313434B601F4B01221A66FFF755
:100C8C009BFC04461B4B1B6813F0007F0ED1FFF737
:100C9C0093FC001B0228F5D9032022E0154A536867
:100CAC0023F40033A1680B435360DCE7002018E009
:100CBC00002016E0012B16D00E4B5B6803F480313C
:100CCC00226A914211D103F47013626A93420ED1DD
:100CDC00002006E001207047012002E0012000E026
:100CEC00002002B070BD0120FBE70120F9E70120D4
:100CFC00F7E700BF00100240000042420F4B5B6858
:100D0C0003F00C02082A01D00D487047C3F383424C
:100D1C000C49885C13F4803F0BD0084B5B68C3F321
:100D2C004043094AD35C064A02FB00F0B0FBF3F0E7
:100D3C007047064B03FB00F0704700BF00100240E9
:100D4C0000127A00F0170008EC17000800093D00AB
:100D5C00002800F0A08070B50D460446524B1B686D
:100D6C0003F007038B420BD24F4A136823F007039F
:100D7C000B431360136803F007038B4240F08D8024
:100D8C00236813F0020F17D013F0040F04D0474A56
:100D9C00536843F4E0635360236813F0080F04D0E6
:100DAC00424A536843F460535360404A536823F0FB
:100DBC00F003A1680B435360236813F0010F31D08B
:100DCC006368012B20D0022B25D0384A126812F010
:100DDC00020F64D035494A6822F0030213434B607A
:100DEC00FFF7EAFB0646314B5B6803F00C036268C5
:100DFC00B3EB820F16D0FFF7DFFB801B41F2883379
:100E0C009842F0D9032045E0284A126812F4003FBA
:100E1C00E0D101203EE0254A126812F0007FD9D1C2
:100E2C00012037E0204B1B6803F00703AB420AD9C3
:100E3C001D4A136823F007032B431360136803F058
:100E4C000703AB422DD1236813F0040F06D0174AC9
:100E5C00536823F4E063E1680B435360236813F099
:100E6C00080F07D0114A536823F46053216943EAF1
:100E7C00C1035360FFF742FF0C4B5B68C3F30313D2
:100E8C000B4AD35CD8400B4B18600B4B1868FFF720
:100E9C004FFB002070BD012070470120FAE70120B4
:100EAC00F8E70120F6E700BF0020024000100240E6
:100EBC00DC1700080000002008000020014B186817
:100ECC00704700BF0000002008B5FFF7F7FF044B88
:100EDC005B68C3F3C223034AD35CD84008BD00BF90
:100EEC0000100240D417000870B582B004460368A5
:100EFC0013F0010F36D03F4BDB6913F0805F49D103
:100F0C003C4BDA6942F08052DA61DB6903F08053C2
:100F1C000193019B0125384B1B6813F4807F3BD058
:100F2C00344B1B6A13F4407313D0626802F44072A2
:100F3C009A420ED02F4A136A23F440702F4901268F
:100F4C00C1F840640026C1F84064106213F0010F30
:100F5C0036D1284A136A23F4407361680B43136239
:100F6C00002D3ED1236813F0020F06D0214A53689E
:100F7C0023F44043A1680B435360236813F0100F14
:100F8C0034D01C4A536823F48003E1680B4353604C
:100F9C0000202CE00025BEE7174A136843F4807349
:100FAC001360FFF709FB0646134B1B6813F4807F95
:100FBC00B6D1FFF701FB801B6428F5D9032016E09E
:100FCC00FFF7FAFA06460B4B1B6A13F0020FC0D15F
:100FDC00FFF7F2FA801B41F288339842F3D90320D1
:100FEC0005E0D36923F08053D361BBE7002002B046
:100FFC0070BD00BF00100240007000400000424273
:10100C0008B502284ED0102803D0012828D0002083
:10101C0052E02B4B5A68186810F080704CD0C2F319
:10102C0083432849C85C12F4803F15D0244B5B687D
:10103C00C3F34043244AD25C244BB3FBF2F303FBCF
:10104C0000F01F4B5B6813F4800F35D14000204B30
:10105C00A3FB003040082FE01E4B03FB00F0F0E731
:10106C00174B1B6A40F202321A40B2F5817F24D032
:10107C0003F44073B3F5007F04D0B3F5407F09D07F
:10108C00002019E00E4A526A12F0020FF5D049F610
:10109C00404011E00A4B186810F400300CD04FF2AD
:1010AC00244009E0FFF710FF054B5B68C3F3813365
:1010BC0001335B00B0FBF3F008BD4FF40040FBE7DD
:1010CC0000100240041800080018000800127A00F2
:1010DC00ABAAAAAA00093D0038B50446FFF76CFA82
:1010EC00054623685A6812F0200F07D1FFF764FAFF
:1010FC00401BB0F57A7FF4D9032004E05A6842F023
:10110C0010025A60002038BD38B504460268536896
:10111C0023F010035360FFF74FFA054623685B6812
:10112C0013F0200F07D1FFF747FA401BB0F57A7F79
:10113C00F4D9032000E0002038BDC0B138B5054615
:10114C000268536823F008035360FFF735FA04462E
:10115C002B685B6813F0080F07D1FFF72DFA001B03
:10116C00B0F57A7FF4D9032000E0002038BD0120CF
:10117C0070470000002850D010B50446437C4BB19A
:10118C00022363742046FFF7D8FF38B1042363743D
:10119C00012010BD0374FFF78BF8F1E72046FFF731
:1011AC009BFF28BB2268536823F007035360A36896
:1011BC0023B11B4A136B23F001031363184AD36A40
:1011CC0023F46073A1680B43D3626368B3F1FF3FF0
:1011DC0012D02268C3F30341916022689BB2D360A2
:1011EC002046FFF791FF88B1042363740120D0E7F8
:1011FC00042363740120CCE70120FFF701FF08B141
:10120C00431EE6E7042363740120C2E70023E37363
:10121C0001236373A3736374BBE70120704700BFA2
:10122C00006C004030B4026A036A23F001030362CD
:10123C004568836923F073030C681C4322F0020297
:10124C008B6813430B4A904206D0456084614A6810
:10125C004263036230BC704723F00803CA681A4328
:10126C0022F0040325F440754A692A438D6915431D
:10127C00EBE700BF002C014030B4036A026A22F491
:10128C00807202624468C26922F073020D681543D1
:10129C0023F400738A6843EA02230D4A904206D075
:1012AC004460C5614A68C263036230BC704723F472
:1012BC000063CA6843EA022323F4806324F4405495
:1012CC004A6944EA02148A6944EA0214E8E700BF56
:1012DC00002C014030B4036A026A22F4805202628C
:1012EC004468C26922F4E6420D6842EA052223F4FE
:1012FC0000538D6843EA0533074DA84206D044607D
:10130C00C2614A680264036230BC704724F48044B2
:10131C004D6944EA8514F2E7002C014003681F4A2A
:10132C0090420AD0B0F1804F07D0A2F5943290428F
:10133C0003D002F58062904203D123F070034A6817
:10134C001343164A90420AD0B0F1804F07D0A2F551
:10135C009432904203D002F58062904203D123F480
:10136C004073CA68134323F080034A691343036034
:10137C008B68C3620B688362084B98420AD00123C6
:10138C004361036913F0010F03D0036923F00103D8
:10139C00036170470B690363F1E700BF002C014048
:1013AC0040B310B5044690F83D30F3B1022384F8F5
:1013BC003D30214651F8040BFFF7B0FF012384F8B0
:1013CC00463084F83E3084F83F3084F8403084F85E
:1013DC00413084F8423084F8433084F8443084F847
:1013EC00453084F83D30002010BD80F83C30FEF7CD
:1013FC00AFFFDBE70120704730B4036A026A22F0CA
:10140C00100202624468826922F4E6420D6842EAE4
:10141C00052223F020038D6843EA05130C4DA842E6
:10142C0006D0446082614A688263036230BC7047B4
:10143C0023F08003CD6843EA051323F0400324F422
:10144C0040644D6944EA85048D6944EA8504E8E703
:10145C00002C014038B590F83C30012B66D0044686
:10146C000D46012380F83C300C2A5AD8DFE802F0F4
:10147C00075959591B595959305959594400006841
:10148C00FFF7D0FE2268936943F00803936122684A
:10149C00936923F0040393612268936929690B43D0
:1014AC00936100203EE00068FFF7A6FF2268936975
:1014BC0043F4006393612268936923F4806393611E
:1014CC0022689369296943EA01239361002029E08A
:1014DC000068FFF7D1FE2268D36943F00803D3619B
:1014EC002268D36923F00403D3612268D369296984
:1014FC000B43D361002015E00068FFF7EBFE226878
:10150C00D36943F40063D3612268D36923F4806305
:10151C00D3612268D369296943EA0123D36100208E
:10152C0000E00120002384F83C3038BD0220FCE7A9
:10153C0090F83C20012A2CD010B40346012280F8EC
:10154C003C20022280F83D2002685068946820F00C
:10155C00700C086840EA0C0050601A680E48824211
:10156C000AD0B2F1804F07D0A0F59430824203D05C
:10157C0000F58060824204D124F080044968214344
:10158C009160012283F83D20002083F83C0010BCC0
:10159C0070470220704700BF002C0140024690F8B3
:1015AC003C30012B21D0012380F83C30CB6823F454
:1015BC0040738868034323F480634868034323F42F
:1015CC0000630868034323F480530869034323F43E
:1015DC0000534869034323F48043C9690B431168E2
:1015EC004B64002082F83C007047022070470000DA
:1015FC0070B5860747D0541E002A3ED00346CAB2A7
:10160C0001E0013C39D303F8012B9D07F9D1032CE0
:10161C002CD9CDB205EB05250F2C1A4605EB05454B
:10162C0034D9A4F1100C2CF00F0603F1100EB644B3
:10163C004FEA1C1CC2E90055C2E902551032724532
:10164C00F8D10CF1010214F00C0F03EB021204F0B0
:10165C000F0C13D0ACF1040323F003030433134435
:10166C0042F8045B9342FBD10CF003042CB1C9B2D9
:10167C001C4403F8011BA342FBD170BD6446134606
:10168C00002CF4D1F9E703461446C0E7A446E1E781
:10169C0070B50F4B0F4DAB42A3EB050607D00024E2
:1016AC00B61055F8043B01349847A642F9D800F01F
:1016BC007FF8094D094B5E1BAB424FEAA60606D0DC
:1016CC00002455F8043B01349847A642F9D870BD64
:1016DC001418000814180008141800081C18000826
:1016EC00704700BF704700BF024B13B1024800F0B7
:1016FC0005B87047000000001517000800230146CC
:10170C001A46184600F014B838B5074D074C2C1B78
:10171C00A41005D0013C55F8043D9847002CF9D194
:10172C00BDE8384000F04AB8201800081C18000822
:10173C002DE9F8431B4D0646286898460F469146FE
:10174C00FFF7CEFF184B1C681CB3286865681F2D6B
:10175C0022DC4EB96B1C0235636044F82570FFF730
:10176C00C1FF0020BDE8F883012304EB8501C1F81B
:10177C008890D4F88821AB401A43022EC4F88821F3
:10178C00C1F80881E6D1D4F88C211A43C4F88C2115
:10179C00E0E7064C1C60D8E7FFF7A4FF4FF0FF30E2
:1017AC00E0E700BF0C000020900000209400002017
:1017BC00F8B500BFF8BC08BC9E467047F8B500BF32
:0817CC00F8BC08BC9E46704702
:1017D40000000000010203040000000000000000FB
:1017E40001020304060708090102000002030405BC
:1017F400060708090A0B0C0D0E0F10100102000059
:1018040002030405060708090A0B0C0D0E0F10103D
:08181400F5160008750100083B
:04181C004D01000872
:1018200000127A0001000000100000008C0000206F
:04000005080004F1FA
:00000001FF
